S01500004C41424F5241544F52494F20342E737265637D
S11300000C9444000C9461000C9461000C947A01EB
S11300100C9461000C9461000C9461000C946100D8
S11300200C9461000C9461000C9461000C946100C8
S11300300C9461000C9461000C9461000C946100B8
S11300400C9461000C9461000C9461000C946100A8
S11300500C9461000C945C010C9461000C9461009C
S11300600C9461000C9461009B009F00A300A70006
S1130070AB00AF00B300B700BB00BF00C300C700B4
S1130080CB00CF00D300D70011241FBECFEFD8E0A0
S1130090DEBFCDBF11E0A0E0B1E0E0E9F3E002C0D3
S11300A005900D92A431B107D9F721E0A4E1B1E0A4
S11300B001C01D92AC31B207E1F70E94DB000C9441
S11300C0C6010C940000282F22952F7030E0309345
S11300D01501209314018F7090E090931701809381
S11300E016010895ECE7F0E08081876080838081C9
S11300F08064808380818F77808380818062808325
S1130100EAE7F0E0108280818068808380818860E3
S11301108083808187608083EEE7F0E08081816066
S1130120808308958031910508F044C0FC01EC5CA3
S1130130FF4F0C94C00185B18F7D85B9089585B1B9
S11301408F7D85B9089585B1806285B9089585B19B
S1130150806285B9089585B1806285B9089585B1B5
S1130160806285B9089585B1806285B9089585B1A5
S11301708F7D85B9089585B1806285B9089585B16B
S1130180806285B9089585B1806285B9089585B185
S1130190806285B9089585B18F7D85B9089585B14B
S11301A0806285B9089585B1806285B9089585B165
S11301B0806285B90895F8940E9472008FEF8AB91D
S11301C01BB887B918B884B18C6384B91092C10084
S11301D084B18E7F84B985B1816085B984B18D7F06
S11301E084B985B1826085B9E8E6F0E080818160F8
S11301F08083EBE6F0E08081836080837894809153
S11302001A0190911B018F3F910529F024F010925F
S11302101B0110921A0180911A0190911B019923DC
S113022034F48FEF90E090931B0180931A01809136
S11302301A018BB9EAE7F0E0808180648083C8E129
S1130240D1E088810E946300E0911601F0911701CA
S1130250E050FF4F808188B9809116019091170179
S11302600E94920085B1806185B985B1877F85B987
S11302708FE19EE40197F1F700C0000088810E949D
S11302806300E0911401F0911501E050FF4F80816B
S113029088B980911401909115010E94920085B152
S11302A0886085B985B18F7E85B98FE19EE4019719
S11302B0F1F700C00000A3CF1F920F920FB60F9268
S11302C011248F939F93EF93FF938091790090E093
S11302D09093190180931801EAE7F0E0808180612E
S11302E08083FF91EF919F918F910F900FBE0F909C
S11302F01F9018951F920F920FB60F9211242F93EF
S11303003F938F939F9393B191709093120183B114
S1130310827080931001911110C02091130121303B
S113032061F41092130120911A0130911B012F5F87
S11303303F4F30931B0120931A01913011F4909395
S11303401301811110C090911101923061F4109247
S1130350110120911A0130911B0121503109309370
S11303601B0120931A01823011F4809311019F9193
S11303708F913F912F910F900FBE0F901F90189562
S1130380EE0FFF1F0590F491E02D0994F894FFCF30
S11303903F065B4F666D7D077F6F777C395E7971B1
S10703A00102010150
S9030000FC
