:100000000C9444000C9461000C9461000C948F01DA
:100010000C9461000C9461000C9461000C946100DC
:100020000C9461000C9461000C9461000C946100CC
:100030000C9461000C9461000C9461000C946100BC
:100040000C9461000C9461000C9461000C946100AC
:100050000C9461000C9471010C9461000C9461008B
:100060000C9461000C946100AE00B200B600BA00BE
:10007000BE00C200C600CA00CE00D200D600DA0020
:10008000DE00E200E600EA0011241FBECFEFD8E058
:10009000DEBFCDBF11E0A0E0B1E0EAEBF3E002C0CB
:1000A00005900D92A631B107D9F721E0A6E1B1E0A4
:1000B00001C01D92AC31B207E1F70E94EE000C9432
:1000C000DB010C94000020911A0130911B018091FA
:1000D0000001909101018217930724F485B1846097
:1000E00085B9089585B18B7F85B90895282F22950C
:1000F0002F7030E030931701209316018F7090E03D
:1001000090931901809318010895ECE7F0E0808145
:100110008760808380818064808380818F77808303
:10012000808180628083EAE7F0E0108280818068CD
:100130008083808188608083808187608083EEE710
:10014000F0E080818160808308958031910508F01E
:1001500044C0FC01EC5CFF4F0C94D50185B18F7D50
:1001600085B9089585B18F7D85B9089585B180627F
:1001700085B9089585B1806285B9089585B1806299
:1001800085B9089585B1806285B9089585B1806289
:1001900085B9089585B18F7D85B9089585B180624F
:1001A00085B9089585B1806285B9089585B1806269
:1001B00085B9089585B1806285B9089585B18F7D2F
:1001C00085B9089585B1806285B9089585B1806249
:1001D00085B9089585B1806285B90895F8940E9423
:1001E00085008FEF8AB91BB887B918B884B18C63C2
:1001F00084B91092C10084B18E7F84B985B18160C9
:1002000085B984B18D7F84B985B1826085B9E8E60E
:10021000F0E0808181608083EBE6F0E080818360A4
:1002200080837894EAE7F0E0808180648083809125
:100230000001909101018F3F910529F024F0109267
:100240000101109200018091000190910101992318
:1002500034F48FEF90E0909301018093000180913E
:1002600000018BB90E946300CAE1D1E088810E943D
:100270007600E0911801F0911901EE5FFE4F808148
:1002800088B980911801909119010E94A50085B14B
:10029000806185B985B1877F85B98FE19EE401973B
:1002A000F1F700C0000088810E947600E0911601FD
:1002B000F0911701EE5FFE4F808188B980911601A1
:1002C000909117010E94A50085B1886085B985B11C
:1002D0008F7E85B98FE19EE40197F1F700C00000A1
:1002E000A1CF1F920F920FB60F9211248F939F935D
:1002F000EF93FF938091790090E090931B0180939E
:100300001A01EAE7F0E0808180618083FF91EF913C
:100310009F918F910F900FBE0F901F9018951F9275
:100320000F920FB60F9211242F933F938F939F93A9
:1003300093B191709093140183B1827080931201F4
:10034000911110C020911501213061F41092150116
:1003500020910001309101012F5F3F4F3093010147
:1003600020930001913011F490931501811110C078
:1003700090911301923061F41092130120910001C9
:100380003091010121503109309301012093000186
:10039000823011F4809313019F918F913F912F919F
:1003A0000F900FBE0F901F901895EE0FFF1F059036
:0A03B000F491E02D0994F894FFCFBA
:1003BA000A003F065B4F666D7D077F6F777C395E6B
:0603CA007971010201013E
:00000001FF
